{
  "contractName": "Artregistry",
  "abi": [
    {
      "inputs": [
        {
          "internalType": "bytes32",
          "name": "_hashValue",
          "type": "bytes32"
        },
        {
          "internalType": "string",
          "name": "_artName",
          "type": "string"
        },
        {
          "internalType": "string",
          "name": "_artistName",
          "type": "string"
        },
        {
          "internalType": "bytes32",
          "name": "_date",
          "type": "bytes32"
        },
        {
          "internalType": "uint256",
          "name": "_artPrice",
          "type": "uint256"
        }
      ],
      "name": "saveArt",
      "outputs": [],
      "stateMutability": "nonpayable",
      "type": "function"
    },
    {
      "inputs": [
        {
          "internalType": "bytes32",
          "name": "_hashValue",
          "type": "bytes32"
        }
      ],
      "name": "getArt",
      "outputs": [
        {
          "internalType": "bytes32",
          "name": "",
          "type": "bytes32"
        },
        {
          "internalType": "string",
          "name": "",
          "type": "string"
        },
        {
          "internalType": "string",
          "name": "",
          "type": "string"
        },
        {
          "internalType": "bytes32",
          "name": "",
          "type": "bytes32"
        },
        {
          "internalType": "uint256",
          "name": "",
          "type": "uint256"
        }
      ],
      "stateMutability": "view",
      "type": "function"
    }
  ],
  "bytecode": "0x608060405234801561001057600080fd5b50610820806100206000396000f3fe608060405234801561001057600080fd5b50600436106100365760003560e01c8063781d4ea21461003b578063eb6312ac14610057575b600080fd5b61005560048036038101906100509190610536565b61008b565b005b610071600480360381019061006c91906105e9565b610126565b6040516100829594939291906106bc565b60405180910390f35b6040518060a00160405280868152602001858152602001848152602001838152602001828152506000808781526020019081526020016000206000820151816000015560208201518160010190805190602001906100ea9291906102cd565b5060408201518160020190805190602001906101079291906102cd565b5060608201518160030155608082015181600401559050505050505050565b6000606080600080600080600088815260200190815260200160002090508681600001541461018a576040517f08c379a000000000000000000000000000000000000000000000000000000000815260040161018190610769565b60405180910390fd5b80600001548160010182600201836003015484600401548380546101ad906107b8565b80601f01602080910402602001604051908101604052809291908181526020018280546101d9906107b8565b80156102265780601f106101fb57610100808354040283529160200191610226565b820191906000526020600020905b81548152906001019060200180831161020957829003601f168201915b50505050509350828054610239906107b8565b80601f0160208091040260200160405190810160405280929190818152602001828054610265906107b8565b80156102b25780601f10610287576101008083540402835291602001916102b2565b820191906000526020600020905b81548152906001019060200180831161029557829003601f168201915b50505050509250955095509550955095505091939590929450565b8280546102d9906107b8565b90600052602060002090601f0160209004810192826102fb5760008555610342565b82601f1061031457805160ff1916838001178555610342565b82800160010185558215610342579182015b82811115610341578251825591602001919060010190610326565b5b50905061034f9190610353565b5090565b5b8082111561036c576000816000905550600101610354565b5090565b6000604051905090565b600080fd5b600080fd5b6000819050919050565b61039781610384565b81146103a257600080fd5b50565b6000813590506103b48161038e565b92915050565b600080fd5b600080fd5b6000601f19601f8301169050919050565b7f4e487b7100000000000000000000000000000000000000000000000000000000600052604160045260246000fd5b61040d826103c4565b810181811067ffffffffffffffff8211171561042c5761042b6103d5565b5b80604052505050565b600061043f610370565b905061044b8282610404565b919050565b600067ffffffffffffffff82111561046b5761046a6103d5565b5b610474826103c4565b9050602081019050919050565b82818337600083830152505050565b60006104a361049e84610450565b610435565b9050828152602081018484840111156104bf576104be6103bf565b5b6104ca848285610481565b509392505050565b600082601f8301126104e7576104e66103ba565b5b81356104f7848260208601610490565b91505092915050565b6000819050919050565b61051381610500565b811461051e57600080fd5b50565b6000813590506105308161050a565b92915050565b600080600080600060a086880312156105525761055161037a565b5b6000610560888289016103a5565b955050602086013567ffffffffffffffff8111156105815761058061037f565b5b61058d888289016104d2565b945050604086013567ffffffffffffffff8111156105ae576105ad61037f565b5b6105ba888289016104d2565b93505060606105cb888289016103a5565b92505060806105dc88828901610521565b9150509295509295909350565b6000602082840312156105ff576105fe61037a565b5b600061060d848285016103a5565b91505092915050565b61061f81610384565b82525050565b600081519050919050565b600082825260208201905092915050565b60005b8381101561065f578082015181840152602081019050610644565b8381111561066e576000848401525b50505050565b600061067f82610625565b6106898185610630565b9350610699818560208601610641565b6106a2816103c4565b840191505092915050565b6106b681610500565b82525050565b600060a0820190506106d16000830188610616565b81810360208301526106e38187610674565b905081810360408301526106f78186610674565b90506107066060830185610616565b61071360808301846106ad565b9695505050505050565b7f417274206e6f7420666f756e6400000000000000000000000000000000000000600082015250565b6000610753600d83610630565b915061075e8261071d565b602082019050919050565b6000602082019050818103600083015261078281610746565b9050919050565b7f4e487b7100000000000000000000000000000000000000000000000000000000600052602260045260246000fd5b600060028204905060018216806107d057607f821691505b602082108114156107e4576107e3610789565b5b5091905056fea26469706673582212207bb84f6b4f357e32cb0c5cc394ff01b6612f11de20c5641448e6108988180c9164736f6c634300080c0033",
  "immutableReferences": {},
  "source": "// SPDX-License-Identifier: MIT\r\npragma solidity ^0.8.12;\r\n\r\ncontract Artregistry {\r\n    struct Art {\r\n        bytes32 hashValue;\r\n        string artName;\r\n        string artistName;\r\n        bytes32 date;\r\n        uint256 artPrice;\r\n    }\r\n\r\n    mapping(bytes32 => Art) private arts;\r\n\r\n    function saveArt(\r\n        bytes32 _hashValue,\r\n        string memory _artName,\r\n        string memory _artistName,\r\n        bytes32 _date,\r\n        uint256 _artPrice\r\n    ) public {\r\n        arts[_hashValue] = Art(\r\n            _hashValue,\r\n            _artName,\r\n            _artistName,\r\n            _date,\r\n            _artPrice\r\n        );\r\n    }\r\n\r\n    //Verify\r\n\r\n    function getArt(\r\n        bytes32 _hashValue\r\n    )\r\n        public\r\n        view\r\n        returns (bytes32, string memory, string memory, bytes32, uint256)\r\n    {\r\n        Art storage art = arts[_hashValue];\r\n        require(art.hashValue == _hashValue, \"Art not found\");\r\n        return (\r\n            art.hashValue,\r\n            art.artName,\r\n            art.artistName,\r\n            art.date,\r\n            art.artPrice\r\n        );\r\n    }\r\n}\r\n",
  "sourcePath": "C:\\Users\\Acer\\Documents\\BE\\Blockchain\\Copy\\contracts\\product.sol",
  "compiler": {
    "name": "solc",
    "version": "0.8.12+commit.f00d7308.Emscripten.clang"
  },
  "schemaVersion": "3.4.13",
  "updatedAt": "2023-04-21T14:56:11.117Z",
  "devdoc": {
    "kind": "dev",
    "methods": {},
    "version": 1
  },
  "userdoc": {
    "kind": "user",
    "methods": {},
    "version": 1
  }
}