{
  "contractName": "product",
  "abi": [
    {
      "inputs": [
        {
          "internalType": "bytes32",
          "name": "_hashValue",
          "type": "bytes32"
        },
        {
          "internalType": "string",
          "name": "_artName",
          "type": "string"
        },
        {
          "internalType": "string",
          "name": "_artistName",
          "type": "string"
        },
        {
          "internalType": "bytes32",
          "name": "_date",
          "type": "bytes32"
        },
        {
          "internalType": "uint256",
          "name": "_artPrice",
          "type": "uint256"
        }
      ],
      "name": "saveArt",
      "outputs": [],
      "stateMutability": "nonpayable",
      "type": "function"
    },
    {
      "inputs": [
        {
          "internalType": "bytes32",
          "name": "_hashValue",
          "type": "bytes32"
        }
      ],
      "name": "getArt",
      "outputs": [
        {
          "internalType": "string",
          "name": "",
          "type": "string"
        },
        {
          "internalType": "bytes32",
          "name": "",
          "type": "bytes32"
        },
        {
          "internalType": "string",
          "name": "",
          "type": "string"
        },
        {
          "internalType": "string",
          "name": "",
          "type": "string"
        },
        {
          "internalType": "bytes32",
          "name": "",
          "type": "bytes32"
        },
        {
          "internalType": "uint256",
          "name": "",
          "type": "uint256"
        }
      ],
      "stateMutability": "view",
      "type": "function",
      "constant": true
    }
  ],
  "bytecode": "0x608060405234801561001057600080fd5b50610843806100206000396000f3fe608060405234801561001057600080fd5b50600436106100365760003560e01c8063781d4ea21461003b578063eb6312ac14610057575b600080fd5b610055600480360381019061005091906105b0565b61008c565b005b610071600480360381019061006c9190610663565b610127565b60405161008396959493929190610736565b60405180910390f35b6040518060a00160405280868152602001858152602001848152602001838152602001828152506000808781526020019081526020016000206000820151816000015560208201518160010190805190602001906100eb929190610347565b506040820151816002019080519060200190610108929190610347565b5060608201518160030155608082015181600401559050505050505050565b606060006060806000806000806000898152602001908152602001600020905087816000015414156101c65760006040518060400160405280600581526020017f416268617900000000000000000000000000000000000000000000000000000081525090600090604051806020016040528060008152509060405180602001604052806000815250906000909650965096509650965096505061033e565b80600001548160010182600201836003015484600401546040518060400160405280600481526020017f41686179000000000000000000000000000000000000000000000000000000008152509493929190838054610224906107db565b80601f0160208091040260200160405190810160405280929190818152602001828054610250906107db565b801561029d5780601f106102725761010080835404028352916020019161029d565b820191906000526020600020905b81548152906001019060200180831161028057829003601f168201915b505050505093508280546102b0906107db565b80601f01602080910402602001604051908101604052809291908181526020018280546102dc906107db565b80156103295780601f106102fe57610100808354040283529160200191610329565b820191906000526020600020905b81548152906001019060200180831161030c57829003601f168201915b50505050509250965096509650965096509650505b91939550919395565b828054610353906107db565b90600052602060002090601f01602090048101928261037557600085556103bc565b82601f1061038e57805160ff19168380011785556103bc565b828001600101855582156103bc579182015b828111156103bb5782518255916020019190600101906103a0565b5b5090506103c991906103cd565b5090565b5b808211156103e65760008160009055506001016103ce565b5090565b6000604051905090565b600080fd5b600080fd5b6000819050919050565b610411816103fe565b811461041c57600080fd5b50565b60008135905061042e81610408565b92915050565b600080fd5b600080fd5b6000601f19601f8301169050919050565b7f4e487b7100000000000000000000000000000000000000000000000000000000600052604160045260246000fd5b6104878261043e565b810181811067ffffffffffffffff821117156104a6576104a561044f565b5b80604052505050565b60006104b96103ea565b90506104c5828261047e565b919050565b600067ffffffffffffffff8211156104e5576104e461044f565b5b6104ee8261043e565b9050602081019050919050565b82818337600083830152505050565b600061051d610518846104ca565b6104af565b90508281526020810184848401111561053957610538610439565b5b6105448482856104fb565b509392505050565b600082601f83011261056157610560610434565b5b813561057184826020860161050a565b91505092915050565b6000819050919050565b61058d8161057a565b811461059857600080fd5b50565b6000813590506105aa81610584565b92915050565b600080600080600060a086880312156105cc576105cb6103f4565b5b60006105da8882890161041f565b955050602086013567ffffffffffffffff8111156105fb576105fa6103f9565b5b6106078882890161054c565b945050604086013567ffffffffffffffff811115610628576106276103f9565b5b6106348882890161054c565b93505060606106458882890161041f565b92505060806106568882890161059b565b9150509295509295909350565b600060208284031215610679576106786103f4565b5b60006106878482850161041f565b91505092915050565b600081519050919050565b600082825260208201905092915050565b60005b838110156106ca5780820151818401526020810190506106af565b838111156106d9576000848401525b50505050565b60006106ea82610690565b6106f4818561069b565b93506107048185602086016106ac565b61070d8161043e565b840191505092915050565b610721816103fe565b82525050565b6107308161057a565b82525050565b600060c082019050818103600083015261075081896106df565b905061075f6020830188610718565b818103604083015261077181876106df565b9050818103606083015261078581866106df565b90506107946080830185610718565b6107a160a0830184610727565b979650505050505050565b7f4e487b7100000000000000000000000000000000000000000000000000000000600052602260045260246000fd5b600060028204905060018216806107f357607f821691505b60208210811415610807576108066107ac565b5b5091905056fea2646970667358221220e46f8e96f6005aba9b798a6669be06e3d41b088cefde41dd85416d5762d5b45764736f6c634300080c0033",
  "immutableReferences": {},
  "source": "// SPDX-License-Identifier: MIT\r\npragma solidity ^0.8.12;\r\n\r\ncontract product {\r\n    struct Art {\r\n        bytes32 hashValue;\r\n        string artName;\r\n        string artistName;\r\n        bytes32 date;\r\n        uint256 artPrice;\r\n    }\r\n\r\n    mapping(bytes32 => Art) arts;\r\n\r\n    function saveArt(\r\n        bytes32 _hashValue,\r\n        string memory _artName,\r\n        string memory _artistName,\r\n        bytes32 _date,\r\n        uint256 _artPrice\r\n    ) public {\r\n        arts[_hashValue] = Art(\r\n            _hashValue,\r\n            _artName,\r\n            _artistName,\r\n            _date,\r\n            _artPrice\r\n        );\r\n    }\r\n\r\n    //Verify\r\n\r\n    function getArt(\r\n        bytes32 _hashValue\r\n    )\r\n        public\r\n        view\r\n        returns (\r\n            string memory,\r\n            bytes32,\r\n            string memory,\r\n            string memory,\r\n            bytes32,\r\n            uint256\r\n        )\r\n    {\r\n        Art storage art = arts[_hashValue];\r\n        if (art.hashValue == _hashValue) {\r\n            return (\"Abhay\", \"\", \"\", \"\", \"\", 0);\r\n        }\r\n        return (\r\n            \"Ahay\",\r\n            art.hashValue,\r\n            art.artName,\r\n            art.artistName,\r\n            art.date,\r\n            art.artPrice\r\n        );\r\n    }\r\n}\r\n",
  "sourcePath": "C:\\Users\\Acer\\Documents\\BE\\Blockchain\\Copy\\contracts\\product.sol",
  "compiler": {
    "name": "solc",
    "version": "0.8.12+commit.f00d7308.Emscripten.clang"
  },
  "schemaVersion": "3.4.13",
  "updatedAt": "2023-04-21T16:22:40.377Z",
  "networkType": "ethereum",
  "devdoc": {
    "kind": "dev",
    "methods": {},
    "version": 1
  },
  "userdoc": {
    "kind": "user",
    "methods": {},
    "version": 1
  }
}